:100000000C942A000C945A030C9447000C9447005B
:100010000C9447000C9447000C9447000C94470044
:100020000C9447000C9447000C9447000C94470034
:100030000C9447000C9447000C9447000C94470024
:100040000C9447000C9447000C9447000C94470014
:100050000C94470011241FBECFE5D8E0DEBFCDBF12
:1000600010E0A0E6B0E0EEE5F8E002C005900D92E9
:10007000AC37B107D9F720E0ACE7B0E001C01D9282
:10008000AD37B207E1F70E94D4030C942D040C9411
:10009000000080EF8ABB8EE087BB14BA80E381BB8F
:1000A0000895883000F5662381F0613009F081C041
:1000B0004BB321E030E0B90102C0660F771F8A958B
:1000C000E2F7CB01842B8BBB08954BB321E030E0EA
:1000D000B90102C0660F771F8A95E2F7CB018095C0
:1000E00084238BBB0895803108F58850662381F006
:1000F000613009F05EC048B321E030E0B90102C0D0
:10010000660F771F8A95E2F7CB01842B88BB089591
:1001100048B321E030E0B90102C0660F771F8A952D
:10012000E2F7CB018095842388BB0895883100F5E0
:100130008051662379F06130E1F545B321E030E08C
:10014000B90102C0660F771F8A95E2F7CB01842BB5
:1001500085BB089545B321E030E0B90102C0660FC8
:10016000771F8A95E2F7CB018095842385BB08959C
:100170008032F8F48851662379F06130D1F442B3CB
:1001800021E030E0B90102C0660F771F8A95E2F7DF
:10019000CB01842B82BB089542B321E030E0B9014A
:1001A00002C0660F771F8A95E2F7CB018095842302
:1001B00082BB08958BB780648BBF08958BB78F7B0C
:1001C0008BBF08958AB780648ABF089585B78E7FF4
:1001D00085BF85B7826085BF0E94DE000E9439011D
:1001E0000E94E200089560E08DE10E94510061E00C
:1001F0008CE10E945100089561E08DE10E94510060
:1002000060E08CE10E945100089560E08DE10E9461
:10021000510060E08CE10E94510008959B9B02C058
:1002200081E001C080E09C9B02C0826001C08D7FA4
:100230009D9B02C0846001C08B7F9E9B02C0886032
:1002400001C0877FB49B02C0806101C08F7EB59BD7
:1002500002C0806201C08F7DB69B02C0806401C075
:100260008F7BB79B02C0806808958F77089578943C
:100270000895F8940895CF93C82F60E08AE00E9413
:10028000510061E089E00E945100C4FD05C060E0BA
:1002900084E00E94510004C061E084E00E945100AB
:1002A000C5FD05C060E085E00E94510004C061E02A
:1002B00085E00E945100C6FD05C060E086E00E9416
:1002C000510004C061E086E00E945100CC232CF074
:1002D00060E087E00E94510004C061E087E00E9476
:1002E000510061E08BE00E9451008FE99FE001978F
:1002F000F1F700C0000060E08BE00E9451008FE940
:100300009FE00197F1F700C00000C0FD05C060E06C
:1003100084E00E94510004C061E084E00E9451002A
:10032000C1FD05C060E085E00E94510004C061E0AD
:1003300085E00E945100C2FD05C060E086E00E9499
:10034000510004C061E086E00E945100C3FD05C079
:1003500060E087E00E94510004C061E087E00E94F5
:10036000510061E08BE00E9451008FE99FE001970E
:10037000F1F700C0000060E08BE00E9451008FE9BF
:100380009FE00197F1F700C00000CF910895CF934F
:10039000C82F60E08AE00E94510060E089E00E947E
:1003A0005100C4FD05C060E084E00E94510004C01B
:1003B00061E084E00E945100C5FD05C060E085E079
:1003C0000E94510004C061E085E00E945100C6FD1A
:1003D00005C060E086E00E94510004C061E086E054
:1003E0000E945100CC232CF060E087E00E94510075
:1003F00004C061E087E00E94510061E08BE00E9450
:1004000051008FE99FE00197F1F700C0000060E024
:100410008BE00E9451008FE99FE00197F1F700C047
:100420000000C0FD05C060E084E00E94510004C0EF
:1004300061E084E00E945100C1FD05C060E085E0FC
:100440000E94510004C061E085E00E945100C2FD9D
:1004500005C060E086E00E94510004C061E086E0D3
:100460000E945100C3FD05C060E087E00E9451007A
:1004700004C061E087E00E94510061E08BE00E94CF
:1004800051008FE99FE00197F1F700C0000060E0A4
:100490008BE00E9451008FE99FE00197F1F700C0C7
:1004A0000000CF9108952FE785EB91E02150804027
:1004B0009040E1F700C0000083E30E94C7018FE392
:1004C0009FE10197F1F700C0000082E30E94C7019D
:1004D0008FE39FE10197F1F700C0000088E20E94DE
:1004E000C7018FE39FE10197F1F700C000008CE0A6
:1004F0000E94C7018FE39FE10197F1F700C0000060
:1005000086E00E94C7018FE39FE10197F1F700C0E9
:10051000000081E00E94C7018FE39FE10197F1F79E
:1005200000C0000008950F931F93CF938C01C0E08B
:1005300003C00E943B01CF5FF801EC0FF11D8081E9
:100540008111F7CFCF911F910F910895860F0E94CF
:10055000C70108951F93CF93DF9300D000D000D040
:10056000CDB7DEB7FC019C01ADECBCEC0E941E04D3
:10057000AC01569547955695479556954795CA01AE
:10058000880F991F440F551F440F551F440F551FC7
:10059000480F591FCF01841B950BAC019E838D839F
:1005A0003695279536952795ABE7B4E10E941E0452
:1005B0009695879564E6689F9001699F300D112498
:1005C000CF01821B930B9C01241B350BADECBCECC3
:1005D0000E941E04AC015695479556954795569531
:1005E00047955C834B839F013695279536952795D4
:1005F00036952795A5ECB0E20E941E04929582954F
:100600008F7089279F70892768EE73E0869F90011D
:10061000879F300D969F300D1124CF01821B930BC5
:10062000841B950B9C013695279536952795ABE74E
:10063000B4E10E941E04969587959A83898310E001
:1006400012C0E12FF0E0EE0FFF1F81E090E08C0F71
:100650009D1FE80FF91F80819181C096918380834F
:100660000E943B011F5F133060F326960FB6F8948B
:10067000DEBF0FBECDBFDF91CF911F910895CF9305
:10068000C0E008C06C2F80E80E94A60280E20E94B1
:100690003B01CF5FC031B0F3C0E008C06C2F80ECED
:1006A0000E94A60280E20E943B01CF5FC031B0F3FE
:1006B000CF9108951F920F920FB60F9211242F938E
:1006C0003F934F935F936F937F938F939F93AF93DA
:1006D000BF93EF93FF930E940E0180937C0069E02B
:1006E00080E80E94A60280917C0090E00E94AA020D
:1006F00061E080EC0E94A60280E690E00E949302F6
:1007000066E080EC0E94A60280917C00853028F48F
:1007100080E090E00E94AA0204C090E005970E9449
:10072000AA026AE080EC0E94A60280917C00823ED0
:1007300028F08FEF90E00E94AA0204C090E0059696
:100740000E94AA022AEA36EE86E991E02150304062
:1007500080409040D9F700000E943F0362E080E8AB
:100760000E94A6028FE690E00E94930269E080E872
:100770000E94A60280917C0090E00E94AA0261E0A3
:100780008AE10E945100FF91EF91BF91AF919F913B
:100790008F917F916F915F914F913F912F910F902A
:1007A0000FBE0F901F9018950E9449000E94E6000E
:1007B0000E94DA000E9437010E9453028FEF85BB2E
:1007C00088B3806188BB88B3806288BB88B380644B
:1007D00088BB88B3806888BB61E08AE10E945100D1
:1007E0000E943F0362E080E80E94A6028FE690E04C
:1007F0000E9493020E940E0180937C00803118F0C9
:100800000E94FC0008C085508B3018F40E94F30051
:1008100002C00E94050169E080E80E94A602809162
:100820007C0090E00E94AA022FEF81E49FEE21500D
:1008300080409040E1F700C00000DCCFA29FB001F3
:10084000B39FC001A39F700D811D1124911DB29F04
:0E085000700D811D1124911D0895F894FFCFA5
:10085E0054656D70282020203A2020202943005412
:0C086E00656D70203D20202020204300FC
:00000001FF
