S01A000047524144554154494F4E5F50524F4A4543542E73726563A6
S11300000C942A000C9444050C9472050C9447003B
S11300100C9447000C9447000C9447000C94470040
S11300200C9447000C940C010C9451060C942A0671
S11300300C9447000C9478060C949F060C9447008B
S11300400C9447000C9447000C9447000C94470010
S11300500C94470011241FBECFE5D8E0DEBFCDBF0E
S113006010E0A0E6B0E0E4E7F0E102C005900D92F4
S1130070A03AB107D9F720E0A0EAB0E001C01D9290
S1130080A13CB207E1F70E949C050C9438080C943B
S1130090000088EF8ABB9FE197BB84BB80E381BBF0
S11300A00895883000F5662381F0613009F081C03D
S11300B04BB321E030E0B90102C0660F771F8A9587
S11300C0E2F7CB01842B8BBB08954BB321E030E0E6
S11300D0B90102C0660F771F8A95E2F7CB018095BC
S11300E084238BBB0895803108F58850662381F002
S11300F0613009F05EC048B321E030E0B90102C0CC
S1130100660F771F8A95E2F7CB01842B88BB08958D
S113011048B321E030E0B90102C0660F771F8A9529
S1130120E2F7CB018095842388BB0895883100F5DC
S11301308051662379F06130E1F545B321E030E088
S1130140B90102C0660F771F8A95E2F7CB01842BB1
S113015085BB089545B321E030E0B90102C0660FC4
S1130160771F8A95E2F7CB018095842385BB089598
S11301708032F8F48851662379F06130D1F442B3C7
S113018021E030E0B90102C0660F771F8A95E2F7DB
S1130190CB01842B82BB089542B321E030E0B90146
S11301A002C0660F771F8A95E2F7CB0180958423FE
S11301B082BB08958BB780648BBF08958BB78F7B08
S11301C08BBF08958AB780648ABF089585B78E7FF0
S11301D085BF85B7826085BF0E94DE000E9423032D
S11301E00E94E20008958BB780688BBF08958BB797
S11301F08F778BBF08958AB780688ABF089585B7C3
S11302008B7F85BF85B7886085BF0E94F7000E94F9
S113021023030E94FB0008951F920F920FB60F92C2
S113022011248F939F93AF93BF938091A0009091DB
S1130230A100A091A200B091A3000196A11DB11D3F
S11302408093A0009093A100A093A200B093A30078
S1130250BF91AF919F918F910F900FBE0F901F9000
S1130260189561E083E10E94510060E084E10E94FE
S1130270510061E085E10E94510060E086E10E9446
S1130280510061E08CE10E94510061E08DE10E9427
S11302905100089560E08CE10E94510060E08DE11E
S11302A00E94510060E083E10E94510060E084E11B
S11302B00E94510060E085E10E94510060E086E107
S11302C00E945100089560E083E10E94510061E0C2
S11302D084E10E94510060E085E10E94510061E0E8
S11302E086E10E94510061E08CE10E94510061E0CE
S11302F08DE10E9451002FEF89E698E12150804062
S11303009040E1F700C000000E944A01089560E0B7
S113031083E10E94510061E084E10E94510061E0A8
S113032085E10E94510060E086E10E94510061E095
S11303308CE10E94510061E08DE10E9451002FEF99
S113034083ED90E3215080409040E1F700C000002D
S11303500E944A01089560E083E10E94510060E038
S113036084E10E94510061E085E10E94510060E057
S113037086E10E94510061E08CE10E94510061E03D
S11303808DE10E9451002FEF83ED90E321508040D6
S11303909040E1F700C000000E944A01089561E026
S11303A083E10E94510060E084E10E94510060E01A
S11303B085E10E94510060E086E10E94510061E005
S11303C08CE10E94510061E08DE10E9451002FEF09
S11303D083ED90E3215080409040E1F700C000009D
S11303E00E944A01089561E088E00E94510025E3DB
S11303F02A95F1F7000060E088E00E9451001DBCDE
S11304001CBC82E48EBD80E288BF84E088BF08B64D
S113041005FEFDCF1DBC1CBC82E08EBD80E288BF02
S113042084E088BF1092A0001092A1001092A20054
S11304301092A30008B605FEFDCFE6B5F7B52091EE
S1130440A0003091A1004091A2005091A300AFEF11
S1130450BFEF0E942D086E0F7F1F811D911D6093B9
S1130460AD007093AE008093AF009093B0000E94F3
S1130470FA0628E23EE74CE05CE30E9489076093B9
S1130480A5007093A6008093A7009093A8008FEF17
S113049091EE24E0815090402040E1F700C000003C
S11304A06091A5007091A6008091A7009091A8008A
S11304B008958F929F92AF92BF92CF92DF92EF9264
S11304C0FF920E94290562E080E80E94900480E681
S11304D090E00E947D0488E10E9428062FEF81EEBF
S11304E094E0215080409040E1F700C000008DE08E
S11304F00E9428060E94F3016093B1007093B20039
S11305008093B3009093B4002FEF85EA9EE02150CE
S113051080409040E1F700C0000082E20E9428067B
S11305200E94F3016093A9007093AA008093AB002A
S11305309093AC002FEF85EA9EE0215080409040DC
S1130540E1F700C0000088E10E942806C090B100D5
S1130550D090B200E090B300F090B40020E030E01E
S113056040E251E4C701B6010E94C6068823ECF4B8
S11305706091A9007091AA008091AB009091AC00A9
S113058020E030E040E251E40E94C60688236CF487
S113059062E080EC0E9490048CE690E00E947D046E
S11305A00E9463010E94870131C08090A90090904D
S11305B0AA00A090AB00B090AC00A5019401C701C3
S11305C0B6010E94840718166CF464E080EC0E9463
S11305D0900488E790E00E947D040E9463010E94D9
S11305E0CF0114C0A5019401C701B6010E94C6063B
S11305F0882364F463E080EC0E94900482E890E035
S11306000E947D040E9463010E94AB010E9429059F
S113061061E080E80E9490048DE890E00E947D04EF
S113062069E080EC0E9490048CE990E00E947D04D3
S1130630FF90EF90DF90CF90BF90AF909F908F90FE
S1130640089578940895F8940895CF93C82F60E09E
S11306508AE00E94510061E089E00E945100C4FDDB
S113066005C060E084E00E94510004C061E084E0C1
S11306700E945100C5FD05C060E085E00E94510064
S113068004C061E085E00E945100C6FD05C060E041
S113069086E00E94510004C061E086E00E9451009F
S11306A0CC232CF060E087E00E94510004C061E09C
S11306B087E00E94510061E08CE00E9451008FE9C4
S11306C09FE00197F1F700C0000060E08CE00E9419
S11306D051008FE99FE00197F1F700C00000C0FDD1
S11306E005C060E084E00E94510004C061E084E041
S11306F00E945100C1FD05C060E085E00E945100E8
S113070004C061E085E00E945100C2FD05C060E0C4
S113071086E00E94510004C061E086E00E9451001E
S1130720C3FD05C060E087E00E94510004C061E0A1
S113073087E00E94510061E08CE00E9451008FE943
S11307409FE00197F1F700C0000060E08CE00E9498
S113075051008FE99FE00197F1F700C00000CF91AD
S11307600895CF93C82F60E08AE00E94510060E0B2
S113077089E00E945100C4FD05C060E084E00E944D
S1130780510004C061E084E00E945100C5FD05C031
S113079060E085E00E94510004C061E085E00E94B1
S11307A05100C6FD05C060E086E00E94510004C00F
S11307B061E086E00E945100CC232CF060E087E0E9
S11307C00E94510004C061E087E00E94510061E092
S11307D08CE00E9451008FE99FE00197F1F700C07F
S11307E0000060E08CE00E9451008FE99FE00197D7
S11307F0F1F700C00000C0FD05C060E084E00E9485
S1130800510004C061E084E00E945100C1FD05C0B4
S113081060E085E00E94510004C061E085E00E9430
S11308205100C2FD05C060E086E00E94510004C092
S113083061E086E00E945100C3FD05C060E087E0EE
S11308400E94510004C061E087E00E94510061E011
S11308508CE00E9451008FE99FE00197F1F700C0FE
S1130860000060E08CE00E9451008FE99FE0019756
S1130870F1F700C00000CF9108952FE785EB91E0D8
S1130880215080409040E1F700C0000083E30E94C3
S1130890B1038FE39FE10197F1F700C0000082E309
S11308A00E94B1038FE39FE10197F1F700C00000BC
S11308B088E20E94B1038FE39FE10197F1F700C042
S11308C000008CE00E94B1038FE39FE10197F1F7F0
S11308D000C0000086E00E94B1038FE39FE101970E
S11308E0F1F700C0000081E00E94B1038FE39FE1B3
S11308F00197F1F700C0000008950F931F93CF9361
S11309008C01C0E003C00E942503CF5FF801EC0F07
S1130910F11D80818111F7CFCF911F910F9108951F
S1130920860F0E94B10308951F93CF93DF9300D0E5
S113093000D000D0CDB7DEB7FC019C01ADECBCEC1F
S11309400E941E08AC0156954795569547955695B5
S11309504795CA01880F991F440F551F440F551F0F
S1130960440F551F480F591FCF01841B950BAC0131
S11309709E838D833695279536952795ABE7B4E10D
S11309800E941E089695879564E6689F9001699F6A
S1130990300D1124CF01821B930B9C01241B350BBA
S11309A0ADECBCEC0E941E08AC01569547955695DB
S11309B04795569547955C834B839F0136952795BC
S11309C03695279536952795A5ECB0E20E941E082A
S11309D0929582958F7089279F70892768EE73E0BE
S11309E0869F9001879F300D969F300D1124CF0173
S11309F0821B930B841B950B9C013695279536958A
S1130A002795ABE7B4E10E941E08969587959A83D3
S1130A10898310E012C0E12FF0E0EE0FFF1F81E0A8
S1130A2090E08C0F9D1FE80FF91F80819181C09683
S1130A30918380830E9425031F5F133060F3269601
S1130A400FB6F894DEBF0FBECDBFDF91CF911F91DB
S1130A500895CF93C0E008C06C2F80E80E949004F2
S1130A6080E20E942503CF5FC031B0F3C0E008C02C
S1130A706C2F80EC0E94900480E20E942503CF5FDB
S1130A80C031B0F3CF9108951F920F920FB60F9219
S1130A9011242F933F934F935F936F937F938F937F
S1130AA09F93AF93BF93EF93FF938091A400811121
S1130AB004C081E08093A40004C01092A4000E94AA
S1130AC04A01FF91EF91BF91AF919F918F917F91D7
S1130AD06F915F914F913F912F910F900FBE0F90A7
S1130AE01F9018951F920F920FB60F9211242F93F7
S1130AF03F934F935F936F937F938F939F93AF93A2
S1130B00BF93EF93FF930E944A010E94590261E050
S1130B1087E10E945100FF91EF91BF91AF919F91A6
S1130B208F917F916F915F914F913F912F910F9092
S1130B300FBE0F901F9018950E9449000E943D041B
S1130B400E9404060E94FE0561E087E10E945100B4
S1130B500E94E6000E94DA000E94FF000E94F30057
S1130B600E94210388E10E9428060E94290561E071
S1130B7080E80E9490048DE890E00E947D0469E082
S1130B8080EC0E9490048CE990E00E947D0431C0C6
S1130B900E9431010E94F3016093B5007093B60086
S1130BA08093B7009093B80065E080EC0E949004B5
S1130BB06091B5007091B6008091B7009091B80033
S1130BC00E94CB06CB010E9494046091B500709101
S1130BD0B6008091B7009091B80020E030E044E383
S1130BE052E40E94C606882324F460E087E10E9450
S1130BF051008091A400813059F2FBCF89B39AB39C
S1130C0084609ABB89BB089583B7806483BF83B72C
S1130C10886083BF83B7816083BF83B78D7F83BFC1
S1130C2083B7846083BF83B78F7E83BF83B78062BB
S1130C3083BF89B78E7F89BF89B78D7F89BF88B706
S1130C40816088BF88B7826088BF12BE1CBE0895C9
S1130C508CBF08951F920F920FB60F9211242F93F9
S1130C603F934F935F936F937F938F939F93AF9330
S1130C70BF93EF93FF93E091BB00F091BC00099503
S1130C80FF91EF91BF91AF919F918F917F916F9160
S1130C905F914F913F912F910F900FBE0F901F9036
S1130CA018951F920F920FB60F9211242F933F9312
S1130CB04F935F936F937F938F939F93AF93BF9360
S1130CC0EF93FF93E091B900F091BA000995FF9179
S1130CD0EF91BF91AF919F918F917F916F915F91B0
S1130CE04F913F912F910F900FBE0F901F90189529
S1130CF01F920F920FB60F9211242F933F934F938D
S1130D005F936F937F938F939F93AF93BF93EF936F
S1130D10FF93E091BD00F091BE000995FF91EF9122
S1130D20BF91AF919F918F917F916F915F914F91FF
S1130D303F912F910F900FBE0F901F9018951F9207
S1130D400F920FB60F9211242F933F934F935F93FB
S1130D506F937F938F939F93AF93BF93EF93FF937F
S1130D60E091BF00F091C0000995FF91EF91BF9110
S1130D70AF919F918F917F916F915F914F913F912F
S1130D802F910F900FBE0F901F9018950E94370758
S1130D9008F481E008950E94630788F09F5798F053
S1130DA0B92F9927B751B0F0E1F0660F771F881F6C
S1130DB0991F1AF0BA95C9F714C0B13091F00E9486
S1130DC07D07B1E008950C947D07672F782F88275D
S1130DD0B85F39F0B93FCCF3869577956795B395AD
S1130DE0D9F73EF490958095709561957F4F8F4F1C
S1130DF09F4F0895E89409C097FB3EF49095809521
S1130E00709561957F4F8F4F9F4F9923A9F0F92FCC
S1130E1096E9BB279395F695879577956795B7954A
S1130E20F111F8CFFAF4BB0F11F460FF1BC06F5F30
S1130E307F4F8F4F9F4F16C0882311F096E911C042
S1130E40772321F09EE8872F762F05C0662371F063
S1130E5096E8862F70E060E02AF09A95660F771F77
S1130E60881FDAF7880F9695879597F90895990F53
S1130E700008550FAA0BE0E8FEEF16161706E80760
S1130E80F907C0F012161306E407F50798F0621B81
S1130E90730B840B950B39F40A2661F0232B242B56
S1130EA0252B21F408950A2609F4A140A6958FEF75
S1130EB0811D811D089557FD9058440F551F59F009
S1130EC05F3F71F04795880F97FB991F61F09F3F33
S1130ED079F087950895121613061406551FF2CF5C
S1130EE04695F1DF08C0161617061806991FF1CFAC
S1130EF086957105610508940895E894BB276627D3
S1130F007727CB0197F908950E94370708F48FEFEC
S1130F1008950E949C070C940D080E94FF0738F066
S1130F200E94060820F0952311F00C94F6070C9407
S1130F30FC0711240C947E070E945B0770F3959FB5
S1130F40C1F3950F50E0551F629FF001729FBB27BC
S1130F50F00DB11D639FAA27F00DB11DAA1F649F58
S1130F606627B00DA11D661F829F2227B00DA11D0B
S1130F70621F739FB00DA11D621F839FA00D611D91
S1130F80221F749F3327A00D611D231F849F600DB2
S1130F90211D822F762F6A2F11249F5750409AF0DB
S1130FA0F1F088234AF0EE0FFF1FBB1F661F771F67
S1130FB0881F91505040A9F79E3F510580F00C9432
S1130FC0F6070C947E075F3FE4F3983ED4F38695CE
S1130FD077956795B795F795E7959F5FC1F7FE2BD2
S1130FE0880F911D9695879597F9089597F99F67AE
S1130FF080E870E060E008959FEF80EC089500249D
S11310000A941616170618060906089500240A9469
S113101012161306140605060895092E0394000CEF
S113102011F4882352F0BB0F40F4BF2B11F460FF7E
S113103004C06F5F7F4F8F4F9F4F0895A29FB001F1
S1131040B39FC001A39F700D811D1124911DB29FF8
S1131050700D811D1124911D08950E941E08A59FE5
S1131060900DB49F900DA49F800D911D112408959F
S1071070F894FFCF1E
S1131074434849434B494E472E2E2E00524554555E
S1131084524E204241434B005455524E204C454647
S113109454005455524E205249474854004F425329
S11310A45441434C4520414654455200636D00006D
S9030000FC
