:100000000C942A000C9447000C9447000C94470071
:100010000C9447000C9447000C9447000C94470044
:100020000C9447000C9447000C9447000C94470034
:100030000C9447000C9447000C9447000C94470024
:100040000C9447000C9447000C9447000C94470014
:100050000C94470011241FBECFE5D8E0DEBFCDBF12
:1000600011E0A0E6B0E0E8E7F7E102C005900D92EC
:10007000AA37B107D9F721E0AAE7B1E001C01D9284
:10008000AF38B207E1F70E94B8090C94BA0B0C9490
:10009000000088EF8ABB8EE087BB8CE784BB8BE3D4
:1000A00081BB0895883000F5662381F0613009F046
:1000B00081C04BB321E030E0B90102C0660F771F69
:1000C0008A95E2F7CB01842B8BBB08954BB321E0DB
:1000D00030E0B90102C0660F771F8A95E2F7CB01C5
:1000E000809584238BBB0895803108F58850662362
:1000F00081F0613009F05EC048B321E030E0B90121
:1001000002C0660F771F8A95E2F7CB01842B88BB6C
:10011000089548B321E030E0B90102C0660F771FAF
:100120008A95E2F7CB018095842388BB08958831B6
:1001300000F58051662379F06130E1F545B321E0A7
:1001400030E0B90102C0660F771F8A95E2F7CB0154
:10015000842B85BB089545B321E030E0B90102C08E
:10016000660F771F8A95E2F7CB018095842385BBC4
:1001700008958032F8F48851662379F06130D1F423
:1001800042B321E030E0B90102C0660F771F8A95C3
:10019000E2F7CB01842B82BB089542B321E030E02B
:1001A000B90102C0660F771F8A95E2F7CB018095EF
:1001B000842382BB0895883058F429B330E0A90124
:1001C00002C0559547958A95E2F7CA018170089556
:1001D000803160F428EF280F96B3892F90E002C099
:1001E000959587952A95E2F781700895883160F496
:1001F00020EF280F93B3892F90E002C09595879543
:100200002A95E2F781700895803260F428EE280F75
:1002100090B3892F90E002C0959587952A95E2F7D3
:100220008170089581E0089561E088E10E945200A4
:1002300060E089E10E94520060E08CE10E9452007F
:1002400060E08DE10E945200089560E088E10E9424
:10025000520061E089E10E94520060E08CE10E945E
:10026000520060E08DE10E945200089560E088E154
:100270000E94520060E089E10E94520061E08CE13E
:100280000E94520060E08DE10E945200089560E0FB
:1002900088E10E94520060E089E10E94520060E023
:1002A0008CE10E94520061E08DE10E9452000895AD
:1002B0000E94710B08951F93CF93DF93D82F162FB1
:1002C000E92FE170F0E0EE0FFF1F91FB442740F9AA
:1002D00050E0440F551F440F551F92FB222720F971
:1002E00030E0220F331F220F331F220F331F4E2BFC
:1002F000242BC22FC06A0E94890B88E00E94A00BA9
:100300008130D1F48C2F0E94920B88E10E94A00BC7
:10031000813091F48D2F0E94920B88E20E94A00BF5
:10032000813051F4812F0E94920B88E20E94A00B31
:10033000813011F40E948F0BDF91CF911F910895AE
:100340000F931F93CF93DF93182F892F8170C82F9E
:1003500080E0D82FCC0FDD1F91FB442740F950E0FF
:10036000440F551F440F551F92FB222720F930E000
:10037000220F331F220F331F220F331F4C2B242B2E
:10038000C22FC06AD1E0DC0F0E94890B88E00E9476
:10039000A00B813021F58C2F0E94920B88E10E94E6
:1003A000A00B8130E1F4812F0E94920B88E20E9421
:1003B000A00B8130A1F40E94890B80E10E94A00B68
:1003C000813069F48D2F0E94920B80E40E94A00B73
:1003D000813029F40E94990B082F0E948F0B802FE7
:1003E000DF91CF911F910F91089561E083E10E9409
:1003F000520061E084E10E94520061E085E10E94C8
:10040000520061E086E10E94520061E08CE00E94AF
:10041000520061E08DE00E94520061E08EE00E9497
:10042000520061E08FE00E945200089560E083E195
:100430000E94520061E084E10E94520061E085E187
:100440000E94520061E086E10E9452008CE00E940E
:10045000DB00882309F487C08DE00E94DB0088233D
:1004600009F483C08EE00E94DB00882309F47FC07A
:100470008FE00E94DB00882309F47BC061E083E108
:100480000E94520060E084E10E94520061E085E138
:100490000E94520061E086E10E9452008CE00E94BE
:1004A000DB00882309F467C08DE00E94DB0088230D
:1004B00009F463C08EE00E94DB00882309F45FC06A
:1004C0008FE00E94DB00882309F45BC061E083E1D8
:1004D0000E94520061E084E10E94520060E085E1E8
:1004E0000E94520061E086E10E9452008CE00E946E
:1004F000DB00882309F447C08DE00E94DB008823DD
:1005000009F443C08EE00E94DB00882309F43FC059
:100510008FE00E94DB008823E1F161E083E10E942B
:10052000520061E084E10E94520061E085E10E9496
:10053000520060E086E10E9452008CE00E94DB00E5
:10054000882349F18DE00E94DB00882331F18EE0A1
:100550000E94DB00882319F18FE00E94DB008111EB
:1005600020C084E4089581E3089584E3089587E337
:1005700008958AE2089582E3089585E3089588E363
:10058000089580E3089583E3089586E3089589E359
:10059000089583E2089581E4089582E4089583E450
:1005A000089580E00895CF93C82F60E08AE00E940C
:1005B000520061E089E00E945200C4FD05C060E085
:1005C00084E00E94520004C061E084E00E94520076
:1005D000C5FD05C060E085E00E94520004C061E0F6
:1005E00085E00E945200C6FD05C060E086E00E94E2
:1005F000520004C061E086E00E945200CC232CF03F
:1006000060E087E00E94520004C061E087E00E9441
:10061000520061E08BE00E9452008FE99FE0019759
:10062000F1F700C0000060E08BE00E9452008FE90B
:100630009FE00197F1F700C00000C0FD05C060E039
:1006400084E00E94520004C061E084E00E945200F5
:10065000C1FD05C060E085E00E94520004C061E079
:1006600085E00E945200C2FD05C060E086E00E9465
:10067000520004C061E086E00E945200C3FD05C044
:1006800060E087E00E94520004C061E087E00E94C1
:10069000520061E08BE00E9452008FE99FE00197D9
:1006A000F1F700C0000060E08BE00E9452008FE98B
:1006B0009FE00197F1F700C00000CF910895CF931C
:1006C000C82F60E08AE00E94520060E089E00E944A
:1006D0005200C4FD05C060E084E00E94520004C0E6
:1006E00061E084E00E945200C5FD05C060E085E045
:1006F0000E94520004C061E085E00E945200C6FDE5
:1007000005C060E086E00E94520004C061E086E01F
:100710000E945200CC232CF060E087E00E9452003F
:1007200004C061E087E00E94520061E08BE00E941B
:1007300052008FE99FE00197F1F700C0000060E0F0
:100740008BE00E9452008FE99FE00197F1F700C013
:100750000000C0FD05C060E084E00E94520004C0BB
:1007600061E084E00E945200C1FD05C060E085E0C8
:100770000E94520004C061E085E00E945200C2FD68
:1007800005C060E086E00E94520004C061E086E09F
:100790000E945200C3FD05C060E087E00E94520045
:1007A00004C061E087E00E94520061E08BE00E949B
:1007B00052008FE99FE00197F1F700C0000060E070
:1007C0008BE00E9452008FE99FE00197F1F700C093
:1007D0000000CF9108952FE785EB91E021508040F4
:1007E0009040E1F700C0000083E30E945F038FE3C5
:1007F0009FE10197F1F700C0000082E30E945F03D0
:100800008FE39FE10197F1F700C0000088E20E94AA
:100810005F038FE39FE10197F1F700C000008CE0D8
:100820000E945F038FE39FE10197F1F700C0000092
:1008300086E00E945F038FE39FE10197F1F700C01C
:10084000000081E00E945F038FE39FE10197F1F7D1
:1008500000C0000008950F931F93CF938C01C0E058
:1008600003C00E94D302CF5FF801EC0FF11D80811D
:100870008111F7CFCF911F910F910895860F0E949C
:100880005F0308951F93CF93DF93CDB7DEB728970B
:100890000FB6F894DEBF0FBECDBFFC019C01ADECDE
:1008A000BCEC0E94AB0BAC0156954795569547950D
:1008B00056954795CA01880F991F440F551F440F3D
:1008C000551F440F551F480F591FCF01841B950B0F
:1008D000AC0198878F833695279536952795ABE79A
:1008E000B4E10E94AB0B9695879564E6689F9001F2
:1008F000699F300D1124CF01821B930B9C01241B97
:10090000350BADECBCEC0E94AB0BAC01569547959A
:1009100056954795569547955E834D839F0136952D
:1009200027953695279536952795A5ECB0E20E9438
:10093000AB0B929582958F7089279F70892768EEFF
:1009400073E0869F9001879F300D969F300D112494
:10095000CF01821B930B841B950B9C013695279529
:1009600036952795ABE7B4E10E94AB0BAC015695E9
:1009700047955C834B839F01329522952F702327E7
:100980003F702327A7E4B3E00E94AB0B96958795B1
:10099000969587959695879560E177E2869F900179
:1009A000879F300D969F300D1124CF01821B930B32
:1009B000841B950B9C013695279536952795369582
:1009C0002795A5ECB0E20E94AB0B929582958F70B3
:1009D00089279F7089279A83898310E012C0E12FAD
:1009E000F0E0EE0FFF1F81E090E08C0F9D1FE80FFD
:1009F000F91F80819181C096918380830E94D302E8
:100A00001F5F143060F328960FB6F894DEBF0FBE58
:100A1000CDBFDF91CF911F9108951F93CF93DF93A7
:100A200000D000D000D0CDB7DEB7FC019C01ADEC0A
:100A3000BCEC0E94AB0BAC0156954795569547957B
:100A400056954795CA01880F991F440F551F440FAB
:100A5000551F440F551F480F591FCF01841B950B7D
:100A6000AC019E838D833695279536952795ABE708
:100A7000B4E10E94AB0B9695879564E6689F900160
:100A8000699F300D1124CF01821B930B9C01241B05
:100A9000350BADECBCEC0E94AB0BAC015695479509
:100AA00056954795569547955C834B839F013695A0
:100AB00027953695279536952795A5ECB0E20E94A7
:100AC000AB0B929582958F7089279F70892768EE6E
:100AD00073E0869F9001879F300D969F300D112403
:100AE000CF01821B930B841B950B9C013695279598
:100AF00036952795ABE7B4E10E94AB0B96958795A9
:100B00009A83898310E012C0E12FF0E0EE0FFF1FFF
:100B100081E090E08C0F9D1FE80FF91F808191818B
:100B2000C096918380830E94D3021F5F133060F3CD
:100B300026960FB6F894DEBF0FBECDBFDF91CF91E2
:100B40001F9108951F93CF93DF9300D000D0CDB7AE
:100B5000DEB79DEC899F912D1124969596959695DB
:100B6000990F292F220F220F920F482F491B50E077
:100B70005C834B8399E2899F912D112492959F70FC
:100B800024E6929F80191124282F30E0241B350B76
:100B9000ADECBCEC0E94AB0B96958795969587952E
:100BA000969587959A83898310E012C0E12FF0E033
:100BB000EE0FFF1F81E090E08C0F9D1FE80FF91FE3
:100BC00080819181C096918380830E94D3021F5FB0
:100BD000123060F30F900F900F900F90DF91CF9134
:100BE0001F910895CF93C0E008C06C2F80E80E9449
:100BF0003E0480E20E94D302CF5FC031B0F3C0E078
:100C000008C06C2F80EC0E943E0480E20E94D30258
:100C1000CF5FC031B0F3CF9108950F931F93CF935F
:100C2000DF93CDB7DEB728970FB6F894DEBF0FBEBF
:100C3000CDBF0E94F20563E080E80E943E0480E69A
:100C400090E00E942B0400E023C00E941602182F9F
:100C50008823F1F00430E0F466E0600F80EC0E943D
:100C60003E04812F0E94D3020E9416021817E1F35E
:100C7000E02FF0E01053EE0FFF1F81E090E08C0FAB
:100C80009D1FE80FF91F812F90E0918380830F5FF4
:100C90000430D8F249815A8188EE93E0489F900150
:100CA000499F300D589F300D11248B819C8164E643
:100CB000689FA001699F500D11248D819E81BC0108
:100CC000660F771F880F991F880F991F880F991F2C
:100CD000860F971F240F351F820F931F2F81388592
:100CE000280F391FA1EFB0EF0E94AB0B96958795A7
:100CF000929582958F7089279F70892786522896B2
:100D00000FB6F894DEBF0FBECDBFDF91CF911F911C
:100D10000F9108950F931F93CF93DF93CDB7DEB755
:100D20002C970FB6F894DEBF0FBECDBF0E94F20520
:100D300060E080E80E943E048BE690E00E942B0475
:100D400000E01CC00E941602182F8823B9F008305A
:100D5000A8F464E0600F80EC0E943E048CE790E011
:100D60000E942B04E1E0F0E0EC0FFD1FE00FF11D0D
:100D700010830E9416021817E1F30F5F083010F37A
:100D800030E01CC0832F90E0E1E0F0E0EC0FFD1FAD
:100D9000E80FF91F2081FC01349641E050E04C0F30
:100DA0005D1FE40FF51F4081E9E0F0E0EC0FFD1F4F
:100DB000E80FF91F241B2C5E20833F5F343010F3B3
:100DC00089852A859B853C85820F890F830F2C9608
:100DD0000FB6F894DEBF0FBECDBFDF91CF911F914C
:100DE0000F9108950F931F93CF938C01C0E00DC016
:100DF0000E941602F8018083882339F00E941602AF
:100E0000F80190818917D1F3CB5FC23088F3CF917D
:100E10001F910F910895882321F0813009F45FC05C
:100E2000089561E083E00E94520061E082E10E9447
:100E300052002FEF84E39CE0215080409040E1F786
:100E400000C0000060E083E00E94520060E082E1A8
:100E50000E9452002FEF81EE94E02150804090409C
:100E6000E1F700C0000061E083E00E94520061E011
:100E700082E10E9452002FEF84E39CE021508040E9
:100E80009040E1F700C0000060E083E00E94520063
:100E900060E082E10E9452002FEF81EE94E0215049
:100EA00080409040E1F700C0000061E083E00E94D4
:100EB000520061E082E10E9452002FEF84E39CE047
:100EC000215080409040E1F700C0000060E083E0E6
:100ED0000E94520060E082E10E945200089561E0A9
:100EE0008BE10E94520061E083E00E9452002FEFEC
:100EF00080E792E0215080409040E1F700C0000080
:100F000060E083E00E9452002FEF81EE94E02150D8
:100F100080409040E1F700C0000061E083E00E9463
:100F200052002FEF83EC99E0215080409040E1F790
:100F300000C0000060E083E00E94520060E08BE1AE
:100F40000E9452000895CF93C62F0E94A0018C13D7
:100F500002C081E001C080E0CF9108951F93CF933C
:100F6000DF93182F0E94F20563E080E80E943E04A0
:100F70008EE790E00E942B0480E090E00E94A001A8
:100F8000C82FD0E02FEF81EE94E0215080409040B8
:100F9000E1F700C00000219669E080E80E943E046D
:100FA00088E990E00E942B04612FCE010E945B0132
:100FB0002FEF81EE94E0215080409040E1F700C097
:100FC00000006C2F80E090E00E945B012FEF83EC2B
:100FD00099E0215080409040E1F700C000006AE0B5
:100FE00080E80E943E0484E890E00E942B0422E204
:100FF0002C9FC0012D9F900D1124EC01C45FDA4F8E
:101000000E94F20566E080E80E943E0487E890E0D6
:101010000E942B042FEF83ED90E3215080409040FD
:10102000E1F700C00000CE01DF91CF911F9108953C
:10103000CF93DF93EC010E94F20563E080E80E9409
:101040003E048CE890E00E942B042FEF85EA9EE09E
:10105000215080409040E1F700C0000060E0CE01E8
:101060000E945B012FEF83EC99E02150804090407B
:10107000E1F700C000006CE080E80E943E0486E9D1
:1010800090E00E942B042FEF83EC99E021508040E8
:101090009040E1F700C000000E94F20566E080E8A1
:1010A0000E943E0487E890E00E942B042FEF8DE21F
:1010B00092E2215080409040E1F700C00000DF91B3
:1010C000CF910895CF93DF93EC010E94F20561E088
:1010D00080E80E943E048AE990E00E942B0462E0CE
:1010E00080EC0E943E0488EA90E00E942B042FEFDF
:1010F0008DE399E4215080409040E1F700C000006A
:101100000E948A06682FCE010E945B012FEF81EEBC
:1011100094E0215080409040E1F700C000000E9420
:10112000F20566E080E80E943E0487E890E00E94B5
:101130002B042FEF8DE292E2215080409040E1F7A6
:1011400000C00000DF91CF910895CF93C0E021C08F
:101150000E9447018FE19EE40197F1F700C0000073
:101160000E9436018FE19EE40197F1F700C0000074
:101170000E9425018FE19EE40197F1F700C0000075
:101180000E9414018FE19EE40197F1F700C0000076
:10119000CF5FCA3AE8F2CF910895CF93C0E021C063
:1011A0000E9414018FE19EE40197F1F700C0000056
:1011B0000E9425018FE19EE40197F1F700C0000035
:1011C0000E9436018FE19EE40197F1F700C0000014
:1011D0000E9447018FE19EE40197F1F700C00000F3
:1011E000CF5FCA3AE8F2CF910895BC019BE012C0EC
:1011F000292F30E0F9013197EE0FFF1FE558FE4F20
:1012000040815181220F331FF901E558FE4F518370
:10121000408391509111ECCF82E2869F9001879F8D
:10122000300D1124C901845F9A4F90937C01809303
:101230007B010895CF93DF930E94F20560E080E880
:101240000E943E04CBE7D1E0888199810E9442044C
:1012500066E080E80E943E048A819B810E944204ED
:101260006CE080E80E943E048C819D810E944204D3
:1012700060E080EC0E943E048E819F810E944204C7
:1012800066E080EC0E943E04888599850E944204B5
:101290006CE080EC0E943E048A859B850E9442049B
:1012A0008AE791E00E94F2060E94F20560E080E881
:1012B0000E943E048C859D850E94420466E080E881
:1012C0000E943E048E859F850E9442046CE080E867
:1012D0000E943E04888999890E94420460E080EC63
:1012E0000E943E048A899B890E94420466E080EC49
:1012F0000E943E048C899D890E9442046CE080EC2F
:101300000E943E048E899F890E9442048AE791E0F0
:101310000E94F206DF91CF910895CF93DF93C1E051
:10132000D0E007C08C2F90E00E94A0018111DF5F08
:10133000CF5FCF3FB9F70E94F20563E080E80E94DB
:101340003E0485EB90E00E942B0466E080EC0E9456
:101350003E048FEB90E00E942B0462E080EC0E9440
:101360003E048D2F90E00E940D05DF91CF910895EE
:10137000CF93DF9300D0CDB7DEB70E9449000E9423
:10138000EB030E94F5010E94710B0E94580180E05E
:101390000E947F0B19821A82F12C0E94F20560E0F4
:1013A00080E80E943E0487EC90E00E942B046EE0EF
:1013B00080E80E943E048F2D0E94A20560E080EC30
:1013C0000E943E0482ED90E00E942B046CE080E8D5
:1013D0000E943E048CE70E94D3026CE080EC0E94E5
:1013E0003E048CE70E94D302CE0101960E94F206D1
:1013F0008981813421F0823409F429C15BC10E94C2
:101400000D06082F10E00E948A06682FC8010E946E
:10141000A3078130F1F40E940B070E94F20560E0FF
:1014200080E80E943E0483EE90E00E942B0460E07E
:1014300080EC0E943E0480EF90E00E942B04CE01DD
:1014400002960E94F2068A81813439F0823421F1B9
:10145000F0C080E00E940B07A0CFF394C8010E9467
:10146000F50881E00E940B070E94F20564E080E825
:101470000E943E048CEF90E00E942B040E94A5087D
:101480002FEF83E294EF215080409040E1F700C0BD
:1014900000000E94CD0881CF0E94F20560E080E844
:1014A0000E943E0484E091E00E942B0460E080EC06
:1014B0000E943E0485E191E00E942B04CE01029639
:1014C0000E94F2068A81823409F451C018F48134F2
:1014D00041F0A1C0833409F450C0843409F453C0EE
:1014E0009AC00E948A06182F0E94F20561E080E8E7
:1014F0000E943E0486E291E00E942B042FEF8DE2D1
:1015000092E2215080409040E1F700C000000E942C
:101510008A06181318C0812F0E94AE078C0161E063
:1015200080EC0E943E0485E391E00E942B046AE077
:1015300080EC0E943E04C8010E944204CE01029643
:101540000E94F2062ACF0E94F20563E080E80E9422
:101550003E048FE391E00E942B042FEF8DE292E294
:10156000215080409040E1F700C0000016CF0E945B
:101570000D0690E00E94180810CF0E940D0690E022
:101580000E9462080ACF0E94F20560E080E80E9493
:101590003E0489E491E00E942B0460E080EC0E940C
:1015A0003E0489E591E00E942B04CE0102960E9440
:1015B000F2068A818234C1F08334E9F08134F1F497
:1015C00080E091E00E94A0018F3F31F460E080E074
:1015D00091E00E945B0160CF81115ECF6FEF80E0F0
:1015E00091E00E945B0158CF0E948D098AE791E04B
:1015F0000E94F20610C00E941A090DC00E94F20556
:1016000060E080E80E943E0489E691E00E942B049D
:1016100080E00E940B070E94F20560E080E80E94D3
:101620003E0489E691E00E942B0480E00E940B07B3
:10163000B4CE0E94F20560E080E80E943E0489E694
:1016400091E00E942B0480E00E940B07A6CE80E070
:1016500091E00E94A0010E940D06082F10E00E9458
:101660008A06682FC8010E94A3078130F9F4F39419
:10167000C8010E94F50881E00E940B070E94F20554
:1016800064E080E80E943E048CEF90E00E942B040E
:101690000E94A5082FEF83E294EF215080409040F4
:1016A000E1F700C000000E94CD0877CE80E00E94E4
:1016B0000B0773CE0E94F20560E080E80E943E04B2
:1016C00089E691E00E942B0480E00E940B072FEF37
:1016D0008DE292E2215080409040E1F700C000008E
:1016E0005CCE86B7806486BF84E086BF8AE080B91E
:1016F00081B1816081B981B18D7F81B9089592B145
:10170000917092B922B190E0880F991F822B82B913
:10171000089584EA86BF06B607FEFDCF089584E9E2
:1017200086BF089583B984E886BF06B607FEFDCF5D
:10173000089584E886BF06B607FEFDCF83B10895FD
:1017400090E021B1287F30E08217930711F481E007
:10175000089580E00895A29FB001B39FC001A39FA8
:10176000700D811D1124911DB29F700D811D1124DA
:08177000911D0895F894FFCFCC
:101778005349474E205552204944005349474E206B
:1017880055522050415353574F5244002A00574155
:1017980049542E002E2E00444F4E450044454C45DA
:1017A80054494E472E002E202E004E4F5720575298
:1017B80049544520544845004E45572050415353FD
:1017C800574F524400544845524520415245005312
:1017D800545544454E54002841292041444D494E12
:1017E80020002842292053545544454E5420202097
:1017F800494E0028412920544F20454E5445520057
:1018080028422920544F20454449540057454C4309
:101818004F4D4500413A414444202020423A444536
:101828004C45544500443A4D4F52452020433A43D5
:1018380048414E4745005752495445204954204194
:101848004741494E00594F55522049443A200054C7
:10185800525920414741494E004C4F434B20204E9E
:101868006F535420204C3132002841292020202851
:10187800422920202028432900554E444546494EF8
:0A18880045442056414C5545000030
:00000001FF
