:100000000C942A000C9447000C9447000C94470071
:100010000C9447000C94DD080C9447000C944700A6
:100020000C9447000C9447000C9447000C94470034
:100030000C9447000C9447000C9447000C94470024
:100040000C9447000C9447000C9447000C94470014
:100050000C94470011241FBECFE5D8E0DEBFCDBF12
:1000600010E0A0E6B0E0ECE5F5E102C005900D92ED
:10007000A43FB107D9F720E0A4EFB0E001C01D9282
:10008000AD3FB207E1F70E943A090C94AC0A0C9418
:10009000000086B1806886B9089587B1806487B909
:1000A00087B1806887B987B18F7D87B986B1816054
:1000B00086B986B1826086B986B1846086B90E94AD
:1000C0004900089597B1907E97B997B1892B87B968
:1000D00014B815B886B1806486B93699FECF24B1BC
:1000E00085B1837090E0982F8827822B089588EF40
:1000F0008ABB8EE087BB14BA11BA0895883000F528
:10010000662381F0613009F081C04BB321E030E01B
:10011000B90102C0660F771F8A95E2F7CB01842BE5
:100120008BBB08954BB321E030E0B90102C0660FEC
:10013000771F8A95E2F7CB01809584238BBB0895C6
:10014000803108F58850662381F0613009F05EC087
:1001500048B321E030E0B90102C0660F771F8A95ED
:10016000E2F7CB01842B88BB089548B321E030E04F
:10017000B90102C0660F771F8A95E2F7CB0180951F
:10018000842388BB0895883100F58051662379F077
:100190006130E1F545B321E030E0B90102C0660FFE
:1001A000771F8A95E2F7CB01842B85BB089545B371
:1001B00021E030E0B90102C0660F771F8A95E2F7AF
:1001C000CB018095842385BB08958032F8F4885153
:1001D000662379F06130D1F442B321E030E0B90117
:1001E00002C0660F771F8A95E2F7CB01842B82BB92
:1001F000089542B321E030E0B90102C0660F771FD5
:100200008A95E2F7CB018095842382BB0895CF9332
:10021000C82F60E08AE00E947E0061E089E00E94D1
:100220007E00C4FD05C060E084E00E947E0004C042
:1002300061E084E00E947E00C5FD05C060E085E0CD
:100240000E947E0004C061E085E00E947E00C6FD41
:1002500005C060E086E00E947E0004C061E086E0A8
:100260000E947E00CC232CF060E087E00E947E009C
:1002700004C061E087E00E947E0061E08BE00E94A4
:100280007E008FE99FE00197F1F700C0000060E079
:100290008BE00E947E008FE99FE00197F1F700C09C
:1002A0000000C0FD05C060E084E00E947E0004C044
:1002B00061E084E00E947E00C1FD05C060E085E051
:1002C0000E947E0004C061E085E00E947E00C2FDC5
:1002D00005C060E086E00E947E0004C061E086E028
:1002E0000E947E00C3FD05C060E087E00E947E00A2
:1002F00004C061E087E00E947E0061E08BE00E9424
:100300007E008FE99FE00197F1F700C0000060E0F8
:100310008BE00E947E008FE99FE00197F1F700C01B
:100320000000CF910895CF93C82F60E08AE00E942B
:100330007E0060E089E00E947E00C4FD05C060E0B0
:1003400084E00E947E0004C061E084E00E947E00A0
:10035000C5FD05C060E085E00E947E0004C061E04C
:1003600085E00E947E00C6FD05C060E086E00E9438
:100370007E0004C061E086E00E947E00CC232CF069
:1003800060E087E00E947E0004C061E087E00E9498
:100390007E0061E08BE00E947E008FE99FE0019784
:1003A000F1F700C0000060E08BE00E947E008FE962
:1003B0009FE00197F1F700C00000C0FD05C060E0BC
:1003C00084E00E947E0004C061E084E00E947E0020
:1003D000C1FD05C060E085E00E947E0004C061E0D0
:1003E00085E00E947E00C2FD05C060E086E00E94BC
:1003F0007E0004C061E086E00E947E00C3FD05C06F
:1004000060E087E00E947E0004C061E087E00E9417
:100410007E0061E08BE00E947E008FE99FE0019703
:10042000F1F700C0000060E08BE00E947E008FE9E1
:100430009FE00197F1F700C00000CF9108952FE7EA
:1004400085EB91E0215080409040E1F700C0000032
:1004500083E30E9493018FE39FE10197F1F700C0CE
:10046000000082E30E9493018FE39FE10197F1F77F
:1004700000C0000088E20E9493018FE39FE1019792
:10048000F1F700C000008CE00E9493018FE39FE130
:100490000197F1F700C0000086E00E9493018FE30E
:1004A0009FE10197F1F700C0000081E00E949301F5
:1004B0008FE39FE10197F1F700C0000008950F93CB
:1004C0001F93CF938C01C0E003C00E940701CF5F50
:1004D000F801EC0FF11D80818111F7CFCF911F91B1
:1004E0000F910895860F0E94930108951F93CF9353
:1004F000DF9300D000D000D0CDB7DEB7FC019C0167
:10050000ADECBCEC0E949D0AAC0156954795569502
:10051000479556954795CA01880F991F440F551F57
:10052000440F551F440F551F480F591FCF01841BFF
:10053000950BAC019E838D8336952795369527952F
:10054000ABE7B4E10E949D0A9695879564E6689FA3
:100550009001699F300D1124CF01821B930B9C01E8
:10056000241B350BADECBCEC0E949D0AAC015695EA
:10057000479556954795569547955C834B839F01C4
:10058000369527953695279536952795A5ECB0E2B3
:100590000E949D0A929582958F7089279F70892766
:1005A00068EE73E0869F9001879F300D969F300D17
:1005B0001124CF01821B930B841B950B9C01369554
:1005C000279536952795ABE7B4E10E949D0A96954D
:1005D00087959A83898310E012C0E12FF0E0EE0F37
:1005E000FF1F81E090E08C0F9D1FE80FF91F8081B5
:1005F0009181C096918380830E9407011F5F133011
:1006000060F326960FB6F894DEBF0FBECDBFDF9124
:10061000CF911F9108951F93CF93DF9300D000D007
:10062000CDB7DEB79DEC899F912D112496959695B7
:100630009695990F292F220F220F920F482F491BB1
:1006400050E05C834B8399E2899F912D1124929510
:100650009F7024E6929F80191124282F30E0241BDC
:10066000350BADECBCEC0E949D0A9695879596954E
:100670008795969587959A83898310E012C0E12F1C
:10068000F0E0EE0FFF1F81E090E08C0F9D1FE80F60
:10069000F91F80819181C096918380830E94070118
:1006A0001F5F123060F30F900F900F900F90DF914B
:1006B000CF911F910895CF93C0E008C06C2F80E8C0
:1006C0000E94720280E20E940701CF5FC031B0F346
:1006D000C0E008C06C2F80EC0E94720280E20E9491
:1006E0000701CF5FC031B0F3CF910895CF9319BE0A
:1006F00098E092BD14BC95B5956095BD92B5957086
:10070000E9F790E498BF99B7906499BF78944093C3
:10071000FC006093FB008093F9002093F800C1E097
:1007200057C061E080EC0E9472028091F9000E9443
:100730000B0366E080EC0E9472028091FB000E9435
:100740000B036BE080EC0E9472028091FC000E941F
:100750000B038091FC008C3339F41092FC008091E3
:10076000FB008F5F8093FB008091FB008C3339F49A
:100770001092FB008091F9008F5F8093F9008091C7
:10078000F9008D3019F581E08093F9001092FB009B
:100790001092FC008091F80081110CC081E08093E0
:1007A000F8006EE080EC0E94720280E690E00E9409
:1007B0005F020CC01092F8006EE080EC0E947202A2
:1007C00083E690E00E945F0201C0C0E0989BFDCFED
:1007D000C111A7CFCF910895AF92CF92EF920F930F
:1007E000CF9319BE98E092BD14BC95B5956095BDA8
:1007F00092B59570E9F790E498BF99B7906499BF66
:1008000078944093FC006093FB008093F900209360
:10081000F8000E945B0361E080EC0E947202802F6E
:100820000E940B0366E080EC0E9472028E2D0E94F3
:100830000B036BE080EC0E9472028C2D0E940B0374
:10084000A11009C06EE080EC0E94720283E690E085
:100850000E945F0208C06EE080EC0E94720280E697
:1008600090E00E945F028091F800811109C06EE063
:1008700080E80E94720283E690E00E945F0292C0CC
:100880006EE080E80E94720280E690E00E945F02C3
:1008900089C061E080E80E9472028091F9000E94A4
:1008A0000B0366E080E80E9472028091FB000E94C8
:1008B0000B036BE080E80E9472028091FC000E94B2
:1008C0000B038091FC008C3339F41092FC00809172
:1008D000FB008F5F8093FB008091FB008C3339F429
:1008E0001092FB008091F9008F5F8093F900809156
:1008F000F9008D3009F581E08093F9001092FB003A
:100900001092FC008091F80081110CC081E080936E
:10091000F8006EE080E80E94720280E690E00E949B
:100920005F020AC01092F8006EE080E80E94720236
:1009300083E690E00E945F028091F800A8122FC029
:100940008091F90008132BC08091FB00E81227C0AA
:100950008091FC00C81223C01EC061E083E00E94A9
:100960007E002FEF89E698E1215080409040E1F72A
:1009700000C0000060E083E00E947E002FEF89E667
:1009800098E1215080409040E1F700C0000001C094
:10099000C0E0989BFDCFC111E0CF01C0C0E0989BA3
:1009A000FDCF01C0C1E0C11174CFCF910F91EF9085
:1009B000CF90AF900895CF9319BE98E092BD14BC2C
:1009C00095B5956095BD92B59570E9F790E498BF9F
:1009D00099B7906499BF78944093FC006093FB00B2
:1009E0008093F900C1E06BC061E080EC0E9472026C
:1009F0008091F9000E940B0366E080EC0E94720275
:100A00008091FB000E940B036BE080EC0E9472025D
:100A10008091FC000E940B038091FC0081110CC0AE
:100A20008091FB00882341F08BE38093FC00809150
:100A3000FB0081508093FB008091FB0081110CC072
:100A40008091F900882341F08BE38093FB00809133
:100A5000F90081508093F9008091F90081112DC037
:100A60001092F9008091FC00811127C08091FB0059
:100A70008823F9F022C061E083E00E947E002FEF1E
:100A800089E698E1215080409040E1F700C00000E5
:100A900060E083E00E947E002FEF89E698E121501C
:100AA00080409040E1F700C0000001C0C0E0989B8A
:100AB000FDCFC111E0CF01C0C0E0989BFDCFC111B7
:100AC00093CFCF910895CF931092F7001092FC002E
:100AD0001092FB001092F90019BE88E082BD89EBEC
:100AE00084BD85B5816085BD82B58570E9F780E4F8
:100AF00088BF89B7806489BF7894C1E02DC060E069
:100B000080EC0E9472028091F9000E940B0364E065
:100B100080EC0E9472028091FB000E940B0368E04F
:100B200080EC0E9472028091FC000E940B036CE03A
:100B300080EC0E9472028091F7000E940B030AC0B1
:100B40002FEF87EA91E6215080409040E1F700C006
:100B50000000C0E0989BF4CFC111D1CFCF91089590
:100B6000FF920F931F93CF93DF9360E080E80E9482
:100B7000720286E690E00E945F02FF24F3946BC14C
:100B800080E090E00E9462008C0181E090E00E9491
:100B90006200EC010115110531F052C081E090E0D6
:100BA0000E9462008C0101151105C1F3E5EFF0E030
:100BB00010828181811120C060E080E80E94720271
:100BC00086E690E00E945F0268E080E80E94720280
:100BD00088E690E00E945F0260E080EC0E94720272
:100BE00088E690E00E945F0268E080EC0E9472025A
:100BF00088E690E00E945F028091F600813001F566
:100C000060E080E80E94720288E690E00E945F0245
:100C100068E080E80E94720286E690E00E945F022F
:100C200060E080EC0E94720288E690E00E945F0221
:100C300068E080EC0E94720288E690E00E945F0209
:100C40000F3F83E0180709F054C005C081E090E031
:100C50000E9462008C010F3F1340C1F3E5EFF0E00A
:100C600081E080838181811120C060E080E80E9462
:100C7000720288E690E00E945F0268E080E80E94CD
:100C8000720288E690E00E945F0260E080EC0E94C1
:100C9000720286E690E00E945F0268E080EC0E94AB
:100CA000720288E690E00E945F028091F600813037
:100CB00001F560E080E80E94720288E690E00E9400
:100CC0005F0268E080E80E94720288E690E00E947D
:100CD0005F0260E080EC0E94720288E690E00E9471
:100CE0005F0268E080EC0E94720286E690E00E945B
:100CF0005F02CF3F83E0D80709F055C005C080E010
:100D000090E00E946200EC01CF3F83E0D807B9F386
:100D1000E5EFF0E081E081838081811120C060E017
:100D200080E80E94720288E690E00E945F0268E01C
:100D300080E80E94720286E690E00E945F0260E016
:100D400080EC0E94720288E690E00E945F0268E0F8
:100D500080EC0E94720288E690E00E945F0280911F
:100D6000F500813001F560E080E80E94720288E6BB
:100D700090E00E945F0268E080E80E94720288E6CC
:100D800090E00E945F0260E080EC0E94720288E6C0
:100D900090E00E945F0268E080EC0E94720286E6AA
:100DA00090E00E945F02209731F053C080E090E015
:100DB0000E946200EC01CD2BC9F3E5EFF0E0118257
:100DC0008081811120C060E080E80E94720286E686
:100DD00090E00E945F0268E080E80E94720288E66C
:100DE00090E00E945F0260E080EC0E94720288E660
:100DF00090E00E945F0268E080EC0E94720288E648
:100E000090E00E945F028091F500813011F560E072
:100E100080E80E94720288E690E00E945F0268E02B
:100E200080E80E94720288E690E00E945F0260E023
:100E300080EC0E94720286E690E00E945F0268E009
:100E400080EC0E94720288E690E00E945F0201C07E
:100E5000F12CB79BFDCFF11093CEDF91CF911F9175
:100E60000F91FF900895EF92FF920F931F93CF93EE
:100E7000DF9300B30295017061E080EC0E94720282
:100E800081E00E940B03C1E011E03BC0D0B3D295DA
:100E9000D1700D1799F180B385FBEE24E0F8F12CA9
:100EA0008D2F90E0E816F906A1F01C3049F461E0BE
:100EB00080EC0E94720281E00E940B0311E01EC0D0
:100EC0001F5F61E080EC0E947202812F0E940B0381
:100ED00015C0113049F461E080EC0E9472028CE090
:100EE0000E940B031CE00AC0115061E080EC0E94DC
:100EF0007202812F0E940B0301C0C0E0989BFDCFBE
:100F00000D2FC111C3CF812FDF91CF911F910F9171
:100F1000FF90EF900895EF92FF920F931F93CF935E
:100F2000DF9300B30295017061E080EC0E947202D1
:100F300080E090E00E947602C1E010E027C0D0B3CC
:100F4000D295D1700D17F9F080B385FBEE24E0F84F
:100F5000F12C8D2F90E0E816F90651F01F5F61E04B
:100F600080EC0E947202812F90E00E9476020BC0FA
:100F7000115061E080EC0E947202812F90E00E948B
:100F8000760201C0C0E0989BFDCF0D2FC111D7CFD5
:100F9000812FDF91CF911F910F91FF90EF900895D6
:100FA000EF92FF920F931F93CF93DF9300B30295BD
:100FB000017066E080EC0E94720280E00E940B03E8
:100FC000C1E010E03BC0D0B3D295D1700D1799F1BC
:100FD00080B385FBEE24E0F8F12C8D2F90E0E8162D
:100FE000F906A1F01B3349F466E080EC0E9472021E
:100FF00080E00E940B0310E01EC01F5F66E080ECE3
:101000000E947202812F0E940B0315C0111109C0AA
:1010100066E080EC0E9472028BE30E940B031BE3EC
:101020000AC0115066E080EC0E947202812F0E947B
:101030000B0301C0C0E0989BFDCF0D2FC111C3CFA2
:10104000812FDF91CF911F910F91FF90EF90089525
:10105000EF92FF920F931F93CF93DF9300B302950C
:1010600001706BE080EC0E94720280E00E940B0332
:10107000C1E010E03BC0D0B3D295D1700D1799F10B
:1010800080B385FBEE24E0F8F12C8D2F90E0E8167C
:10109000F906A1F01B3349F46BE080EC0E94720268
:1010A00080E00E940B0310E01EC01F5F6BE080EC2D
:1010B0000E947202812F0E940B0315C0111109C0FA
:1010C0006BE080EC0E9472028BE30E940B031BE337
:1010D0000AC011506BE080EC0E947202812F0E94C6
:1010E0000B0301C0C0E0989BFDCF0D2FC111C3CFF2
:1010F000812FDF91CF911F910F91FF90EF90089575
:10110000EF92FF920F931F93CF93DF9310B312953B
:1011100011706EE080EC0E94720283E690E00E9403
:101120005F02C1E000E03FC0D0B3D295D1701D177F
:10113000B9F180B385FBEE24E0F8F12C8D2F90E01F
:10114000E816F906B1F0013051F46EE080EC0E942F
:10115000720283E690E00E945F0200E021C00F5F10
:101160006EE080EC0E94720280E690E00E945F02D6
:1011700017C001110AC06EE080EC0E94720280E686
:1011800090E00E945F0201E00BC001506EE080EC35
:101190000E94720283E690E00E945F0201C0C0E0FC
:1011A000989BFDCF1D2FC111BFCF802FDF91CF9115
:1011B0001F910F91FF90EF9008951F920F920FB61D
:1011C0000F9211248F938091FA00823021F08430A5
:1011D00009F43FC044C08091F4008F5F8093F40015
:1011E000823049F48091F7008F5F8093F70010926E
:1011F000F40089EB84BD8091F700843639F41092B5
:10120000F7008091FC008F5F8093FC008091FC00D0
:101210008C3339F41092FC008091FB008F5F809337
:10122000FB008091FB008C3339F41092FB0080911D
:10123000F9008F5F8093F9008091F9008436A1F462
:101240001092F9001092FB001092FC001092F7002F
:101250000BC08091FC0081508093FC0005C0809100
:10126000FC008F5F8093FC008F910F900FBE0F905A
:101270001F9018950E9477000E941F020E944D0047
:1012800061E08FE00E947E0061E08CE10E947E00C0
:1012900061E08DE10E947E0061E080E10E947E00BD
:1012A0000E945B0361E080E80E9472028AE690E09F
:1012B0000E945F0261E080EC0E9472028AEC90E082
:1012C0000E945F0269E080E80E94720280E790E07D
:1012D0000E945F0269E080EC0E94720288E790E061
:1012E0000E945F020E94B0058091F500811108C044
:1012F0008091F600811104C081E08093FA0023C040
:101300008091F500811108C08091F600813021F4B0
:1013100082E08093FA0017C08091F500813041F49B
:101320008091F600811104C083E08093FA000BC025
:101330008091F500813039F48091F600813019F404
:1013400084E08093FA008091FA00823071F118F401
:10135000813039F0A5CF8330E9F1843009F4B2C08F
:101360009FCF0E945B0360E080E80E9472028EE7DC
:1013700090E00E945F0260E080EC0E9472028DE8C3
:1013800090E00E945F020E943307C82F0E94D0079E
:10139000D82F0E942808182F0E948008282F412F3C
:1013A0006D2F8C2F0E9476037BCF0E945B0360E041
:1013B00080E80E94720288E990E00E945F0260E08B
:1013C00080EC0E94720289EA90E00E945F020E9413
:1013D000630566CF0E945B0361E080E80E947202B1
:1013E00086EB90E00E945F0262E080EC0E94720255
:1013F00085EC90E00E945F022FEF87EA91E6215092
:1014000080409040E1F700C000000E945B0360E074
:1014100080E80E9472028EE790E00E945F0260E026
:1014200080EC0E9472028DE890E00E945F020E94B0
:101430003307082F0E94D007E82E0E942808C82EE4
:101440000E948008A82E0E945B0362E080E80E9450
:10145000720280ED90E00E945F0261E080EC0E94E9
:1014600072028AED90E00E945F022FEF87EA91E618
:10147000215080409040E1F700C000000E945B03D3
:1014800060E080E80E9472028EE790E00E945F02B6
:1014900060E080EC0E9472028DE890E00E945F02A2
:1014A0000E943307C82F0E94D007D82F0E94280817
:1014B000182F0E948008282F412F6D2F8C2F0E94FB
:1014C000EC03EECE0E945B0362E080E80E947202B1
:1014D00088EE90E00E945F0264E080EC0E9472025D
:1014E00088E790E00E945F022FEF87EA91E62150A3
:1014F00080409040E1F700C000000E945B0360E084
:1015000080E80E9472028EE790E00E945F0260E035
:1015100080EC0E9472028DE890E00E945F020E94BF
:101520008B07C82F0E94D007D82F0E942808482F69
:101530006D2F8C2F0E94DB04B3CEA29FB001B39F0E
:10154000C001A39F700D811D1124911DB29F700DCC
:0C155000811D1124911D0895F894FFCF17
:10155C00504D00414D002A002000434C4F434B009E
:10156C00532E57415443480054494D455200484F5F
:10157C005552204D494E542053434E4400202020B8
:10158C00203A202020203A00485552204D494E2028
:10159C005345432044454349002020203A20202035
:1015AC003A2020203A0041542046495253542045B9
:1015BC004E54455200594F555220414C41524D000A
:1015CC004E4F5720454E54455200544845205245E5
:1015DC00414C2054494D4500454E54455220594FDD
:0415EC005552000054
:00000001FF
